:020000040800F2
:10000000FCFF0020C9170000C1170000C117000045
:10001000C1170000C1170000C1170000C117000080
:10002000C1170000C1170000C1170000C117000070
:10003000C1170000C1170000C1170000C117000060
:10004000C1170000C1170000C1170000C117000050
:10005000C1170000C1170000C1170000C117000040
:10006000C1170000C1170000C1170000C117000030
:10007000C1170000C1170000C1170000C117000020
:10008000C1170000C1170000C1170000C117000010
:10009000C1170000C1170000C1170000C117000000
:1000A000C1170000C1170000C1170000C1170000F0
:1000B000C1170000C1170000C1170000C1170000E0
:1000C000C1170000C1170000C1170000C1170000D0
:1000D000C1170000C1170000C1170000C1170000C0
:1000E000C1170000C1170000C1170000C1170000B0
:1000F000C1170000C1170000C1170000C1170000A0
:10010000C1170000C1170000C1170000C11700008F
:10011000C1170000C1170000C1170000C11700007F
:10012000C1170000C1170000C1170000C11700006F
:10013000C1170000C1170000C1170000C11700005F
:10014000C1170000C1170000C1170000C11700004F
:1001500001480068704700BFA800002081B0ADF8DA
:1001600000100146BDF800000B68C3F3C01202B9CD
:10017000FAE70A1D106001B07047FFFF81B000F27E
:100180000C02116000F208021368C3F3000202B906
:10019000F8E700F20C02126890B201B07047FFFF5E
:1001A00082B0CDF800E0034619460191FFF7D0FF79
:1001B00040F2E83100FB01F201990A601F49097819
:1001C000C1F30311C8B21E4909180878C0B21A1D3C
:1001D0001968C140116019490988C1F3022188B228
:1001E000174909180878C0B203F20802191D0968F6
:1001F000C140116011490988C1F3C22188B2104978
:1002000009180878C0B203F20C02191D0968C14030
:1002100011600A490988C1F3813188B20949091876
:100220000978C8B203F2100203F20C010968B1FBAD
:10023000F0F11160DDF800E002B0704704100240F8
:10024000C41B00006A16000081B0CDF800E081B246
:100250000348FFF783FFDDF800E001B0704700BFFF
:100260000048004081B0CDF800E081B20348FFF7BC
:1002700075FFDDF800E001B0704700BF004C0040A2
:1002800083B0CDF800E000F0FF031A09104603F038
:100290000F02134614E0194A02921FE0184A029214
:1002A0001CE0184A029219E0174A029216E0174A17
:1002B000029213E0164A029210E0164A02920DE0F2
:1002C0000028E8D00128E9D00228EAD00328EBD0A2
:1002D0000428ECD00528EDD00628EED0012212B279
:1002E0009A40ADF8042002980A46BDF8041000F0C8
:1002F00081FADDF800E003B0704700BF000801405C
:10030000000C0140001001400014014000180140A1
:10031000001C01400020014081B0CDF800E081B216
:100320000348FFF71BFFDDF800E001B0704700BF96
:100330000050004081B0CDF800E081B20348FFF7E3
:100340001DFFDDF800E001B0704700BF003800403D
:1003500081B0CDF800E081B20348FFF70FFFDDF870
:1003600000E001B0704700BF0030014081B0CDF81F
:1003700000E081B20348FFF701FFDDF800E001B0C3
:10038000704700BF003C004081B0CDF800E081B272
:100390000348FFF7E3FEDDF800E001B0704700BF5F
:1003A0000044004081B0CDF800E081B20348FFF77F
:1003B000D5FEDDF800E001B0704700BF0038014015
:1003C00081B0CDF800E081B20348FFF7D7FEDDF839
:1003D00000E001B0704700BF0038004081B0CDF8A8
:1003E00000E081B20348FFF7C9FEDDF800E001B08C
:1003F000704700BF0030014081B0194900EA010197
:10040000084600220EE0042022E0082020E0102010
:100410001EE020201CE040201AE0802018E040F27E
:10042000001015E00F498842EDD00F498842ECD00A
:100430000E498842EBD00E498842EAD00D498842E5
:10044000E9D00D498842E8D00C498842E7D01046EF
:100450000B49096841EA000209490A6001B0704786
:1004600000FCFFFF00080140000C014000100140AB
:100470000014014000180140001C01400020014010
:100480001810024081B0CDF800E081B20348FFF7B8
:1004900075FEDDF800E001B0704700BF003C004091
:1004A00081B0CDF800E0012252B23E490A6000F26C
:1004B00068010B686FF0006103EA0102144603F063
:1004C0000061C90E0B4602F00041B1F1004F02D1AC
:1004D00035490A6801E035490A6804F47021090CBD
:1004E0000E464FF6FF7104EA01010D4604F4401177
:1004F000B1F5401F0DD16FF0706102EA01010E46A7
:100500002A490A686FF070610A4028490A60324639
:1005100016E004F48011B1F5801F09D14FF00301FA
:10052000B140C94302EA010141F070610A4607E0A7
:10053000610D090105FA01F1C9430A4042F07062F8
:100540002BB1610D090105FA01F10A43FFE704F03F
:100550000041B1F1004F02D113490A6001E0134993
:100560000A6040F2000A81464FEA8A0109EB010164
:100570000968B1F1FF3F10D009F134014FEA8A0355
:10058000C91809680A4609EB0301096808461146BB
:10059000FFF776FE0AF1010AE6E7DDF800E001B0B8
:1005A000704700BF000342421C00014004000140AC
:1005B00089B0CDF800E0834698B28C46BDF824108F
:1005C0000A9E04ACADF80410ADF808002046FFF711
:1005D000E7FDBDF80800BDF80410644CA34512D136
:1005E00001256DB2624C2560624D634C2560634D00
:1005F000634C2560634D644C2560644D644C2560FC
:10060000079C039456E0634CA34512D101256DB2BB
:10061000614C2560614D584C2560614D584C2560FA
:10062000604D594C2560604D594C2560069C0394E3
:1006300040E05E4CA34512D101256DB25C4C2560B3
:100640005C4D4D4C25605C4D4D4C25605B4D4E4CDA
:1006500025605B4D4E4C2560069C03942AE0594C66
:10066000A34512D101256DB2574C2560574D424C20
:100670002560574D424C2560564D434C2560564DE4
:10068000434C2560069C039414E0544CA34511D1BF
:1006900001256DB2524C2560524D374C2560524DAC
:1006A000374C2560514D384C2560514D384C2560F4
:1006B000069C0394ADF80410ADF808003046FFF72F
:1006C000EFFEBDF80800BDF804100BF11005002482
:1006D0002C600BF110052C680C432C600BF10C0501
:1006E00000242C6018B140F4806080B2FFE70BF169
:1006F0000C052C6804432C600BF10C0601253468B2
:1007000065F34D3434600BF10C060125346865F354
:10071000C30434600BF10C060125346865F38204D0
:1007200034600BF1140500242C60039D19246543EB
:100730004FEA8C04B5FBF4F76424B7FBF4F426010C
:10074000350964246C433C1B240104F23205642403
:10075000B5FBF4F404F00F0446EA04040BF10805B9
:10076000A4B22C60DDF800E009B070470038014009
:1007700038034242A5030000B4000020FFFFFFFF42
:10078000B8000020FFFFFFFFBC000020FFFFFFFFBD
:10079000C000002000440040C4034242890300001E
:1007A000FFFFFFFFFFFFFFFFFFFFFFFF00480040CD
:1007B000C803424249020000FFFFFFFFFFFFFFFFA7
:1007C000FFFFFFFF004C0040CC03424265020000E7
:1007D000FFFFFFFFFFFFFFFFFFFFFFFF0050004095
:1007E000D003424219030000FFFFFFFFFFFFFFFF9E
:1007F000FFFFFFFF81B0CDF800E08CB21546774BCC
:1008000000EA03031E461846FFF7F6FDB4F1FF0F9A
:100810000CD1734B9D4203D14FF033333360D9E099
:10082000422D03D14FF044333360D3E04FF6FF73D2
:100830009C4214D16A4B9D4207D14FF03333336051
:10084000341D4FF033332360C4E0422D07D14FF005
:1008500044333360341D4FF044332360BAE0002149
:10086000002005F001030BB100211DE005F002039B
:1008700033B105F4C0730BB1082100E0042113E08B
:1008800005F0040333B105F020030BB1042100E0AF
:10089000002109E005F0080333B105F020030BB196
:1008A0000C2100E00821FFE74E4B05EA03030BB1E2
:1008B000032009E005F400730BB1022004E005F405
:1008C00080630BB10120FFE705F00C030BB101437E
:1008D000FFE704F0FF039BB2002B3BD037680020FA
:1008E0001FFA84F832462E4608282CD24FF0010316
:1008F00003FA00F408EA0403A34222D185004FF072
:100900000F03AB40DB4307EA030401FA05F344EAB3
:1009100003031D4606F48173B3F5817F05D102F20E
:1009200014044FF001038340236006F08203822BFE
:1009300005D102F210044FF00103834023602F46DB
:10094000FFE7401CD0E717601FFA88F00F463146DA
:10095000164602E00F462946A0B2B0F1FF0F39D982
:10096000331DD3F800800022082A30D202F2080496
:100970004FF0010303FA04F400EA0403A34224D174
:1009800095004FF00F03AB40DB4308EA030807FA7A
:1009900005F348EA030801F48173B3F5817F07D1B9
:1009A00006F2140502F208044FF00103A3402B6085
:1009B00001F08203822B07D106F2100502F208042F
:1009C0004FF00103A3402B60FFE7521CCCE7331D1F
:1009D000C3F80080DDF800E001B0704700FCFFFFC5
:1009E000140008000008080083B0CDF800E08AB2C7
:1009F000014690B283B2421E90B26BB10A78D4B273
:100A0000ADF804000291A0B2054C2468A0470299F9
:100A1000BDF80400491CEDE7DDF800E003B07047C5
:100A20009400002081B000230360CB009BB242EA17
:100A3000030304689BB244EA03030360051D131417
:100A40001C462B6864F382032B6000F21C05002413
:100A50002B6864F3CB232B600124036864F38613B3
:100A6000036001B07047FFFF83B0CDF800E0ADF840
:100A700008100190BDF80830BDF80820521EADF8EE
:100A800008204BB10020064C2468A047019A107042
:100A9000019A521C0192EDE7DDF800E003B07047C7
:100AA0009C00002082B0CDF800E001A90870084643
:100AB0000121FFF799FFDDF800E002B07047FFFF6A
:100AC00081B0CDF800E04FF0420289B2FFF792FE0C
:100AD000DDF800E001B0704781B0CDF800E0019D85
:100AE0002C4610B408B493B28AB201460348FFF70B
:100AF0005FFD02B0DDF800E001B070470038014052
:100B000081B0CDF800E0019D2C4610B408B493B23A
:100B10008AB201460348FFF74BFD02B0DDF800E062
:100B200001B070470048004083B0CDF800E08DF878
:100B3000040002910B4C0C4B1C600C4C0C4B1C60C9
:100B4000012464B20B4B1C601046FFF7A9FC029A0B
:100B50009DF804100848FFF765FFDDF800E003B0DA
:100B6000704700BF85040000AC0000206D0300004A
:100B7000B0000020BC034242003C004082B0CDF8EF
:100B800000E001A80121FFF76FFF01A80078DDF860
:100B900000E002B07047FFFF81B0CDF800E0044AEA
:100BA00089B2FFF727FEDDF800E001B0704700BF13
:100BB0001400080081B0CDF800E0019D2C4610B46F
:100BC00008B493B28AB201460348FFF7F1FC02B0C1
:100BD000DDF800E001B070470044004001490860C2
:100BE000704700BF9481224201490860704700BFEE
:100BF0009881224201490860704700BFB0812242BB
:100C000001490860704700BFA801224201490860FD
:100C1000704700BFB881224201490860704700BF99
:100C2000AC01224201490860704700BFB0812242F6
:100C300001490860704700BFB001224281B0CDF881
:100C400000E00020064C2468A0470620FFF72AFF9A
:100C50000120034C2468A047DDF800E001B0704794
:100C60009800002081B0CDF800E0FFF7FDFEDDF830
:100C700000E001B07047FFFF82B0CDF800E001ABAB
:100C8000010CC9B219705A1C00F47F41090AC9B29B
:100C900011709A1C00F0FF01C9B2117003211846AF
:100CA000FFF7A2FEDDF800E002B0704781B0CDF89A
:100CB00000E0FFF799FEDDF800E001B07047FFFFAC
:100CC00001490860704700BF9C81214201490860CA
:100CD000704700BF9881214281B0CDF800E00178D3
:100CE000CCB2A0B2034C2468A0470020DDF800E09D
:100CF00001B070479000002082B0CDF800E00020E5
:100D00000A4C2468A0470520FFF7CCFEFFF736FF0A
:100D10008DF804000120054C2468A0479DF80400CC
:100D200000F08000DDF800E002B07047980000207D
:100D300001490860704700BF8C01224202680349E4
:100D40000A60011D0A6802490A6070479400002089
:100D50009C00002081B0CDF800E0094902B440F2C7
:100D6000000340F2000240F20001FFF723FF01B050
:100D7000044A05490A600020DDF800E001B0704730
:100D8000F81A0000890300009000002081B0CDF81F
:100D900000E0094902B440F2000340F2000240F2D0
:100DA0000001FFF799FE01B0044A05490A600020DE
:100DB000DDF800E001B07047B4190000A5030000A1
:100DC0009000002001490860704700BF880122425E
:100DD00001490860704700BF9001214200F20801FC
:100DE0000A6806490A60011D0A6805490A6000F29E
:100DF00018010A6803490A60704700BF9800002084
:100E0000A0000020A400002081B0CDF800E0011D6A
:100E10000A680168C8B21146034AFFF785FE002040
:100E2000DDF800E001B070478C1A000081B0CDF809
:100E300000E0A9E0012905D140F220016548FFF753
:100E40003FFE04E040F220016248FFF7A5FEBBE050
:100E5000012905D140F208015F48FFF731FE04E0A7
:100E600040F208015C48FFF797FEADE0012905D18B
:100E700044F200015948FFF723FE04E044F2000168
:100E80005648FFF789FE9FE0012905D140F2004155
:100E90005148FFF715FE04E040F200414E48FFF7CD
:100EA0007BFE91E0012905D140F600014A48FFF799
:100EB00007FE04E040F600014748FFF76DFE83E0BF
:100EC000012905D141F200014348FFF7F9FD04E093
:100ED00041F200014048FFF75FFE75E0012905D1AE
:100EE00041F200013D48FFF7EBFD04E041F2000153
:100EF0003A48FFF751FE67E0012905D140F60001AD
:100F00003648FFF7DDFD04E040F600013348FFF707
:100F100043FE59E0012905D140F240012F48FFF777
:100F2000CFFD04E040F240012C48FFF735FE4BE0D6
:100F3000012905D140F220012848FFF7C1FD04E056
:100F400040F220012548FFF727FE3DE0012905D1A9
:100F500040F240012248FFF7B3FD04E040F24001B7
:100F60001F48FFF719FE2FE0012905D140F280014B
:100F70001B48FFF7A5FD04E040F280011848FFF789
:100F80000BFE21E0012020E000283FF453AF0128B0
:100F90003FF45EAF02283FF469AF03283FF474AF1B
:100FA00004283FF47FAF05283FF48AAF06283FF4BA
:100FB00095AF0728A0D00828ACD00928B8D00A28B7
:100FC000C4D00B28D0D0DDE70020DDF800E001B070
:100FD000704700BF000801400010014000140140AC
:100FE000000C014081B0CDF800E0A9E0012905D155
:100FF00040F210016548FFF763FD04E040F2100184
:101000006248FFF7C9FDBBE0012905D140F20401A8
:101010005F48FFF755FD04E040F204015C48FFF72C
:10102000BBFDADE0012905D142F200015948FFF7AF
:1010300047FD04E042F200015648FFF7ADFD9FE096
:10104000012905D140F200415148FFF739FD04E084
:1010500040F200414E48FFF79FFD91E0012905D184
:1010600040F600014A48FFF72BFD04E040F600017E
:101070004748FFF791FD83E0012905D141F20001C6
:101080004348FFF71DFD04E041F200014048FFF72F
:1010900083FD75E0012905D140F201013B48FFF7CE
:1010A0000FFD04E040F201013848FFF775FD67E0ED
:1010B000012905D140F200413648FFF701FD04E067
:1010C00040F200413348FFF767FD59E0012905D19F
:1010D00040F200212F48FFF7F3FC04E040F200212A
:1010E0002C48FFF759FD4BE0012905D140F20011D2
:1010F0002848FFF7E5FC04E040F200112548FFF71F
:101100004BFD3DE0012905D140F240012248FFF7A7
:10111000D7FC04E040F240011F48FFF73DFD2FE0FF
:10112000012905D140F280011B48FFF7C9FC04E00A
:1011300040F280011848FFF72FFD21E0012020E058
:1011400000283FF453AF01283FF45EAF02283FF47C
:1011500069AF03283FF474AF04283FF47FAF05283C
:101160003FF48AAF06283FF495AF0728A0D008289F
:10117000ACD00928B8D00A28C4D00B28D0D0DDE7DD
:101180000020DDF800E001B0704700BF000801401A
:101190000010014000140140000C014081B0CDF866
:1011A00000E0094902B440F2000340F2000240F2BC
:1011B0000001FFF7FFFC01B0044A05490A60002066
:1011C000DDF800E001B07047F81A00008903000064
:1011D0009000002081B0CDF800E0094902B440F24F
:1011E000000340F2000240F20001FFF789FC01B069
:1011F000044A05490A600020DDF800E001B07047AC
:10120000201A0000490200009000002081B0CDF8B3
:1012100000E0011D0A680168C8B21146034AFFF7E1
:1012200083FC0020DDF800E001B070478C1A00005C
:1012300001490860704700BFA4812242014908604B
:10124000704700BFA881224201490860704700BF73
:101250008001214201490860704700BFA0812242FD
:1012600001490860704700BF9401214201490860AC
:10127000704700BF9C81214201490860704700BF50
:101280009881214201490860704700BFB0012242A5
:1012900001490860704700BFAC0122420149086063
:1012A000704700BFA801224201490860704700BF93
:1012B000B481224281B0CDF800E0FFF71DFD00B1FE
:1012C000FBE7FFF7BBFC0020064C2468A047C720C3
:1012D000FFF7E8FB0120034C2468A047DDF800E09D
:1012E00001B070479800002081B0CDF800E05FFAAF
:1012F00081F95FFA82FA0FE05FFA8AF15FFA89F00A
:10130000FFF770FE0DE05FFA8AF15FFA89F0FFF7F0
:101310008DFD06E0012004E00028EDD00128F2D088
:10132000F8E7DDF800E001B07047FFFF86B0CDF8C8
:1013300000E0039004910592FFF7DEFC00B1FBE7AB
:10134000FFF77CFC00202D4C2468A0470220FFF70B
:10135000A9FB059BB3F5807F07D80398FFF78CFCAA
:1013600005990498FFF7A2FC40E0059B1B0A8DF845
:101370000830059B03F0FF038DF809300025E8B223
:101380009DF8083098421AD2040224B2039B1B191C
:101390008DF804001846FFF76FFC9DF80400040266
:1013A00024B2049B1B198DF8040000211846FFF796
:1013B0007DFC9DF80400431CDDB2E8B2E0E79DF837
:1013C00009309BB19DF808301C0224B2039B1B1905
:1013D0001846FFF751FC9DF808301C0224B2049B0C
:1013E0001B199DF809101846FFF760FC0120034CFB
:1013F0002468A047DDF800E006B0704798000020A0
:1014000083B0CDF800E0024610460D228DF808208A
:101410000A228DF809201FE0FFF75EFC23E0027826
:101420002AB10190FFF758FC0198401CF7E71AE039
:1014300002782AB10190FFF74FFC0198401CF7E7B2
:1014400002AA1046FFF748FC0DF109021046FFF70B
:1014500043FC08E0062007E00029DDD00129DED0AA
:101460000229E5D0F6E70020DDF800E003B0704780
:1014700084B0CDF800E0019002910392FFF73CFCAC
:1014800000B1FBE700200A4C2468A0470320FFF7C7
:1014900009FB0198FFF7F0FB03990298FFF7E2FBC5
:1014A0000120034C2468A047DDF800E004B0704739
:1014B0009800002081B0CDF800E011E00846FFF769
:1014C00089FE16E00846FFF769FE12E00846FFF7BE
:1014D0005DFC0EE00846FFF73DFC0AE0012008E055
:1014E0000028EBD00128EDD02028EFD03028F1D013
:1014F000F4E7DDF800E001B07047FFFF81B0CDF800
:1015000000E003460846FFF719FC1846FFF766FCA3
:10151000DDF800E001B0704781B0CDF800E00120B7
:10152000074C2468A0470020064C2468A0470120EF
:10153000054C2468A047DDF800E001B0704700BF0B
:1015400098000020A4000020A000002081B0CDF869
:1015500000E0FFF7D1FB00B1FBE7FFF76FFB0020D6
:10156000064C2468A0479820FFF79CFA0120034C02
:101570002468A047DDF800E001B070479800002023
:1015800081B0CDF800E08B4609E05846FFF73CFCFF
:101590000AE05846FFF73AFE06E0012004E0002882
:1015A000F3D00128F5D0F8E7DDF800E001B070478E
:1015B00081B01548006840F00101134801601349EB
:1015C0001348016010480168124801400E4801604C
:1015D0000D4801686FF4802001400B4801600C4801
:1015E00001686FF4FE000140094801600648016887
:1015F0006FF0A0500140044801604FF00001064820
:10160000016001B0704700BF001002400000FFF011
:1016100004100240FFFFF6FE2C10024081B01CF8BF
:10162000019B0BF8019BBBEB0A0FF8D101B070478F
:1016300081B04FF000094FF0000CBDEB0A0F04DC45
:10164000BDEB0B0F01DBD446EA464BF8049BBBEB2A
:101650000A0FFAD1BCEB0A0F05DDE246D9F800B05B
:101660000BF1040BF1E701B0704702040608FFFF1D
:1016700081B0CDF800E017491748FFF73FFFFFF7AB
:101680004BFF4EF67F67C0F236077F1EFDD100BFCD
:1016900000BF00BF00BF00BFFFF758FF43F6FF5772
:1016A000C0F2490700BF00BF7F1EFDD100BF00BFD1
:1016B00000BFFFF7FFFD4EF67F67C0F2360700BFA1
:1016C00000BF7F1EFDD100BF00BF00BFDDF800E0FE
:1016D00001B07047DC1B0000641B0000FFFFFFFF30
:1016E00081B0CDF800E014480221FFF789FE0922FD
:1016F00012491348FFF71AFE12480221FFF780FE35
:10170000092211490E48FFF7B3FE10480121FFF7E7
:1017100077FE02210C48FFF773FE41F6FF27C0F267
:10172000B7077F1EFDD100BF00BF00BF00BF00BFD5
:10173000DDF800E001B07047000000203800002014
:101740001550010042000020860000207A00002091
:1017500081B0CDF800E0002202210020FFF7C4FD97
:10176000002206210020FFF7BFFD002201210020FA
:10177000FFF7BAFD0C4801460020FFF701FF42F2D7
:1017800080512020FFF796FE44F67F77C0F21207C3
:101790007F1EFDD100BF00BF00BF00BF00BFDDF84E
:1017A00000E001B0704700BFD41B000081B00249C7
:1017B0000248016001B0704740190100A8000020F4
:1017C00081B0FEE701B0704700F00EF800F04AFA71
:1017D000FFF7ECFF00F006FAFFF7BAFFFFF748FF4C
:1017E000FFF77EFFFCE7FEE781B0CDF800E0464A58
:1017F000464B474C47494BF68030814206D9464814
:10180000006840F002014448016011E045F6C05014
:10181000814206D94048006840F001013E4801601D
:1018200006E03D4801686FF0070001403A4801605A
:10183000FFF7BEFE3948036039480460394802EAC0
:1018400000013948016002F0010040B119463648F4
:10185000006800F00200002800D1F8E700E0194617
:1018600002F4803040B10B462F48006800F400308D
:10187000002800D1F8E700E00B4602F0805068B184
:101880002948006840F080512748016026480068D8
:1018900000F00050002800D1F8E7FFE702F0806078
:1018A00078B12148006840F080611F48016011460E
:1018B0001A461D48006800F00060002800D1F8E7D3
:1018C00001E011461A4601F0807070B116480068B8
:1018D00040F080711448016011461348006800F020
:1018E000007000B9F9E70A46FFE70C48006800F00D
:1018F0000C01900000F00C00814200D0F5E7DDF80B
:1019000000E001B0704700BF8100010502841D00A6
:10191000440601004019010000200240041002406A
:101920002C100240FFFF0F00001002405772697434
:10193000696E67204D696B726F4520746F20204679
:101940006C617368206D656D6F72792C2066726FA3
:101950006D20616464726573732030783031353086
:1019600031353A004D696B726F450D0A00005265C2
:101970006164696E672039206279746573206F66CF
:1019800020466C617368206D656D6F72792C2066DE
:10199000726F6D20616464726573732030783031CA
:1019A000353031353A004461746120726561643AC2
:1019B0002000FFFF090000000A000000FFFFFFFFFA
:1019C0000000000000000000000000000000000017
:1019D0000000000000000000000000000000000007
:1019E00000000000000000001808000018000000BF
:1019F00000000000000000000000000000000000E7
:101A000000000000000000000000000000000000D6
:101A100000000000000000000000000004000000C2
:101A20003800000039000000FFFFFFFF0000000049
:101A300000000000000000000000000000000000A6
:101A40000000000000000000000000000000000096
:101A5000000000001808000018000000000000004E
:101A60000000000000000000000000000000000076
:101A70000000000000000000000000000000000066
:101A80000000000000000000300014082A000000E0
:101A90002B0000002C000000FFFFFFFF00000000F3
:101AA0000000000000000000000000000000000036
:101AB0000000000000000000000000000000000026
:101AC00018080000180800001808000000000000B6
:101AD0000000000000000000000000000000000006
:101AE00000000000000000000000000000000000F6
:101AF0000000000000112008350000003600000042
:101B0000FFFFFFFF000000000000000000000000D9
:101B100000000000000000000000000000000000C5
:101B20000000000000000000000000001808000095
:101B3000180000000000000000000000000000008D
:101B40000000000000000000000000000000000095
:101B50000000000000000000000000000000000085
:101B600008000008D10D0000C50D0000A9120000FA
:101B70009D12000091120000851200004912000021
:101B80003D120000311200005512000079120000D1
:101B90006D120000FFFFFFFFFFFFFFFFFFFFFFFFD2
:101BA000FFFFFFFFFFFFFFFFFFFFFFFFFFFFFFFF45
:101BB000FFFFFFFFFFFFFFFFFFFFFFFFFFFFFFFF35
:101BC000FFFFFFFF00000000010203040102030405
:101BD0000607080907000000040300006D03000069
:101BE0008504000000B5DFF814B0DFF814A0DFF8BA
:101BF00014C0FFF713FD00BD704700BF00000020B8
:101C0000860000202C190000FFFFFFFFFFFFFFFFF1
:101C1000FFFFFFFFFFFFFFFFFFFFFFFFFFFFFFFFD4
:101C2000FFFFFFFFFFFFFFFFFFFFFFFFFFFFFFFFC4
:101C3000FFFFFFFFFFFFFFFFFFFFFFFFFFFFFFFFB4
:101C4000FFFFFFFFFFFFFFFFFFFFFFFFFFFFFFFFA4
:101C5000FFFFFFFFFFFFFFFFFFFFFFFFFFFFFFFF94
:101C6000FFFFFFFF00B5DFF810B0DFF810A0FFF7AF
:101C7000DFFC00BD704700BF00000020C400002052
:00000001FF
